{
  "contractName": "GoogleAuthMapping",
  "abi": [
    {
      "constant": true,
      "inputs": [
        {
          "name": "",
          "type": "uint256"
        }
      ],
      "name": "DIS",
      "outputs": [
        {
          "name": "addr",
          "type": "address"
        },
        {
          "name": "id",
          "type": "uint256"
        },
        {
          "name": "name",
          "type": "string"
        },
        {
          "name": "place",
          "type": "string"
        }
      ],
      "payable": false,
      "stateMutability": "view",
      "type": "function"
    },
    {
      "constant": true,
      "inputs": [],
      "name": "disCtr",
      "outputs": [
        {
          "name": "",
          "type": "uint256"
        }
      ],
      "payable": false,
      "stateMutability": "view",
      "type": "function"
    },
    {
      "constant": true,
      "inputs": [],
      "name": "manCtr",
      "outputs": [
        {
          "name": "",
          "type": "uint256"
        }
      ],
      "payable": false,
      "stateMutability": "view",
      "type": "function"
    },
    {
      "constant": true,
      "inputs": [
        {
          "name": "",
          "type": "uint256"
        }
      ],
      "name": "ProductStock",
      "outputs": [
        {
          "name": "id",
          "type": "uint256"
        },
        {
          "name": "name",
          "type": "string"
        },
        {
          "name": "quantity",
          "type": "uint256"
        },
        {
          "name": "registeredByEmail",
          "type": "string"
        },
        {
          "name": "description",
          "type": "string"
        },
        {
          "name": "RMSid",
          "type": "uint256"
        },
        {
          "name": "MANid",
          "type": "uint256"
        },
        {
          "name": "DISid",
          "type": "uint256"
        },
        {
          "name": "RETid",
          "type": "uint256"
        },
        {
          "name": "stage",
          "type": "uint8"
        }
      ],
      "payable": false,
      "stateMutability": "view",
      "type": "function"
    },
    {
      "constant": true,
      "inputs": [
        {
          "name": "",
          "type": "uint256"
        }
      ],
      "name": "RET",
      "outputs": [
        {
          "name": "addr",
          "type": "address"
        },
        {
          "name": "id",
          "type": "uint256"
        },
        {
          "name": "name",
          "type": "string"
        },
        {
          "name": "place",
          "type": "string"
        }
      ],
      "payable": false,
      "stateMutability": "view",
      "type": "function"
    },
    {
      "constant": true,
      "inputs": [],
      "name": "retCtr",
      "outputs": [
        {
          "name": "",
          "type": "uint256"
        }
      ],
      "payable": false,
      "stateMutability": "view",
      "type": "function"
    },
    {
      "constant": true,
      "inputs": [],
      "name": "productCtr",
      "outputs": [
        {
          "name": "",
          "type": "uint256"
        }
      ],
      "payable": false,
      "stateMutability": "view",
      "type": "function"
    },
    {
      "constant": true,
      "inputs": [
        {
          "name": "",
          "type": "uint256"
        }
      ],
      "name": "MAN",
      "outputs": [
        {
          "name": "addr",
          "type": "address"
        },
        {
          "name": "id",
          "type": "uint256"
        },
        {
          "name": "name",
          "type": "string"
        },
        {
          "name": "place",
          "type": "string"
        }
      ],
      "payable": false,
      "stateMutability": "view",
      "type": "function"
    },
    {
      "constant": true,
      "inputs": [],
      "name": "rmsCtr",
      "outputs": [
        {
          "name": "",
          "type": "uint256"
        }
      ],
      "payable": false,
      "stateMutability": "view",
      "type": "function"
    },
    {
      "constant": true,
      "inputs": [
        {
          "name": "",
          "type": "uint256"
        }
      ],
      "name": "RMS",
      "outputs": [
        {
          "name": "addr",
          "type": "address"
        },
        {
          "name": "id",
          "type": "uint256"
        },
        {
          "name": "name",
          "type": "string"
        },
        {
          "name": "place",
          "type": "string"
        }
      ],
      "payable": false,
      "stateMutability": "view",
      "type": "function"
    },
    {
      "anonymous": false,
      "inputs": [
        {
          "indexed": true,
          "name": "googleIdHash",
          "type": "bytes32"
        },
        {
          "indexed": false,
          "name": "ethAddress",
          "type": "address"
        },
        {
          "indexed": false,
          "name": "email",
          "type": "string"
        },
        {
          "indexed": false,
          "name": "username",
          "type": "string"
        },
        {
          "indexed": false,
          "name": "location",
          "type": "string"
        },
        {
          "indexed": false,
          "name": "role",
          "type": "uint8"
        }
      ],
      "name": "UserRegistered",
      "type": "event"
    },
    {
      "anonymous": false,
      "inputs": [
        {
          "indexed": false,
          "name": "productId",
          "type": "uint256"
        },
        {
          "indexed": false,
          "name": "name",
          "type": "string"
        },
        {
          "indexed": false,
          "name": "quantity",
          "type": "uint256"
        },
        {
          "indexed": false,
          "name": "registeredByEmail",
          "type": "string"
        }
      ],
      "name": "ProductAdded",
      "type": "event"
    },
    {
      "constant": false,
      "inputs": [
        {
          "name": "_address",
          "type": "address"
        },
        {
          "name": "_name",
          "type": "string"
        },
        {
          "name": "_place",
          "type": "string"
        }
      ],
      "name": "addRMS",
      "outputs": [],
      "payable": false,
      "stateMutability": "nonpayable",
      "type": "function"
    },
    {
      "constant": false,
      "inputs": [
        {
          "name": "_address",
          "type": "address"
        },
        {
          "name": "_name",
          "type": "string"
        },
        {
          "name": "_place",
          "type": "string"
        }
      ],
      "name": "addManufacturer",
      "outputs": [],
      "payable": false,
      "stateMutability": "nonpayable",
      "type": "function"
    },
    {
      "constant": false,
      "inputs": [
        {
          "name": "_address",
          "type": "address"
        },
        {
          "name": "_name",
          "type": "string"
        },
        {
          "name": "_place",
          "type": "string"
        }
      ],
      "name": "addDistributor",
      "outputs": [],
      "payable": false,
      "stateMutability": "nonpayable",
      "type": "function"
    },
    {
      "constant": false,
      "inputs": [
        {
          "name": "_address",
          "type": "address"
        },
        {
          "name": "_name",
          "type": "string"
        },
        {
          "name": "_place",
          "type": "string"
        }
      ],
      "name": "addRetailer",
      "outputs": [],
      "payable": false,
      "stateMutability": "nonpayable",
      "type": "function"
    },
    {
      "constant": false,
      "inputs": [
        {
          "name": "googleIdHash",
          "type": "bytes32"
        },
        {
          "name": "email",
          "type": "string"
        },
        {
          "name": "ethAddress",
          "type": "address"
        },
        {
          "name": "username",
          "type": "string"
        },
        {
          "name": "location",
          "type": "string"
        },
        {
          "name": "role",
          "type": "uint8"
        }
      ],
      "name": "registerUser",
      "outputs": [],
      "payable": false,
      "stateMutability": "nonpayable",
      "type": "function"
    },
    {
      "constant": true,
      "inputs": [
        {
          "name": "googleIdHash",
          "type": "bytes32"
        }
      ],
      "name": "validateUser",
      "outputs": [
        {
          "name": "",
          "type": "bool"
        }
      ],
      "payable": false,
      "stateMutability": "view",
      "type": "function"
    },
    {
      "constant": true,
      "inputs": [
        {
          "name": "googleIdHash",
          "type": "bytes32"
        }
      ],
      "name": "getUserAddress",
      "outputs": [
        {
          "name": "",
          "type": "address"
        }
      ],
      "payable": false,
      "stateMutability": "view",
      "type": "function"
    },
    {
      "constant": true,
      "inputs": [
        {
          "name": "googleIdHash",
          "type": "bytes32"
        }
      ],
      "name": "getUsername",
      "outputs": [
        {
          "name": "",
          "type": "string"
        }
      ],
      "payable": false,
      "stateMutability": "view",
      "type": "function"
    },
    {
      "constant": true,
      "inputs": [
        {
          "name": "googleIdHash",
          "type": "bytes32"
        }
      ],
      "name": "getRole",
      "outputs": [
        {
          "name": "",
          "type": "uint8"
        }
      ],
      "payable": false,
      "stateMutability": "view",
      "type": "function"
    },
    {
      "constant": false,
      "inputs": [
        {
          "name": "name",
          "type": "string"
        },
        {
          "name": "quantity",
          "type": "uint256"
        },
        {
          "name": "registeredByEmail",
          "type": "string"
        },
        {
          "name": "description",
          "type": "string"
        }
      ],
      "name": "addProduct",
      "outputs": [],
      "payable": false,
      "stateMutability": "nonpayable",
      "type": "function"
    },
    {
      "constant": true,
      "inputs": [],
      "name": "getAllProducts",
      "outputs": [
        {
          "components": [
            {
              "name": "id",
              "type": "uint256"
            },
            {
              "name": "name",
              "type": "string"
            },
            {
              "name": "quantity",
              "type": "uint256"
            },
            {
              "name": "registeredByEmail",
              "type": "string"
            },
            {
              "name": "description",
              "type": "string"
            },
            {
              "name": "RMSid",
              "type": "uint256"
            },
            {
              "name": "MANid",
              "type": "uint256"
            },
            {
              "name": "DISid",
              "type": "uint256"
            },
            {
              "name": "RETid",
              "type": "uint256"
            },
            {
              "name": "stage",
              "type": "uint8"
            }
          ],
          "name": "",
          "type": "tuple[]"
        }
      ],
      "payable": false,
      "stateMutability": "view",
      "type": "function"
    },
    {
      "constant": true,
      "inputs": [
        {
          "name": "user",
          "type": "address"
        }
      ],
      "name": "getUserProducts",
      "outputs": [
        {
          "components": [
            {
              "name": "id",
              "type": "uint256"
            },
            {
              "name": "name",
              "type": "string"
            },
            {
              "name": "quantity",
              "type": "uint256"
            },
            {
              "name": "registeredByEmail",
              "type": "string"
            },
            {
              "name": "description",
              "type": "string"
            },
            {
              "name": "RMSid",
              "type": "uint256"
            },
            {
              "name": "MANid",
              "type": "uint256"
            },
            {
              "name": "DISid",
              "type": "uint256"
            },
            {
              "name": "RETid",
              "type": "uint256"
            },
            {
              "name": "stage",
              "type": "uint8"
            }
          ],
          "name": "",
          "type": "tuple[]"
        }
      ],
      "payable": false,
      "stateMutability": "view",
      "type": "function"
    },
    {
      "constant": false,
      "inputs": [
        {
          "name": "_productID",
          "type": "uint256"
        }
      ],
      "name": "RMSsupply",
      "outputs": [],
      "payable": false,
      "stateMutability": "nonpayable",
      "type": "function"
    },
    {
      "constant": false,
      "inputs": [
        {
          "name": "_productID",
          "type": "uint256"
        }
      ],
      "name": "Manufacturing",
      "outputs": [],
      "payable": false,
      "stateMutability": "nonpayable",
      "type": "function"
    },
    {
      "constant": false,
      "inputs": [
        {
          "name": "_productID",
          "type": "uint256"
        }
      ],
      "name": "Distribute",
      "outputs": [],
      "payable": false,
      "stateMutability": "nonpayable",
      "type": "function"
    },
    {
      "constant": false,
      "inputs": [
        {
          "name": "_productID",
          "type": "uint256"
        }
      ],
      "name": "Retail",
      "outputs": [],
      "payable": false,
      "stateMutability": "nonpayable",
      "type": "function"
    },
    {
      "constant": false,
      "inputs": [
        {
          "name": "_productID",
          "type": "uint256"
        }
      ],
      "name": "sold",
      "outputs": [],
      "payable": false,
      "stateMutability": "nonpayable",
      "type": "function"
    },
    {
      "constant": true,
      "inputs": [
        {
          "name": "_productID",
          "type": "uint256"
        }
      ],
      "name": "showStage",
      "outputs": [
        {
          "name": "",
          "type": "string"
        }
      ],
      "payable": false,
      "stateMutability": "view",
      "type": "function"
    }
  ],
  "bytecode": "0x6080604052600060085560006009556000600a556000600b556000600c5534801561002957600080fd5b50613794806100396000396000f3fe608060405260043610610164576000357c01000000000000000000000000000000000000000000000000000000009004806302ee3a52146101695780632a4af440146101945780632b0187ac146101bd5780632b70b08d146101fd5780632bdb2e6b146102265780633d753a1c14610251578063438e9c4d1461027a5780634a4e8884146102a55780634def474a146102e25780635573d8b21461030b57806359bf286f146103515780636a992c9f146103915780636d5b6462146103ba5780636e8eb7bc146103f75780637e43d94d14610434578063857ddb041461045f57806386c18275146104885780639c03facb146104b1578063a48d335a146104da578063aaea34aa14610503578063c3849e141461052e578063cc4030691461056b578063d732ce32146105ab578063dd286398146105d4578063e101a2e0146105ff578063eef5cb401461063c578063f0829d3b1461067c578063fee7f53b146106a5575b600080fd5b34801561017557600080fd5b5061017e6106e2565b60405161018b91906133ca565b60405180910390f35b3480156101a057600080fd5b506101bb60048036036101b69190810190612df5565b610992565b005b3480156101c957600080fd5b506101e460048036036101df9190810190613019565b610a86565b6040516101f49493929190613377565b60405180910390f35b34801561020957600080fd5b50610224600480360361021f9190810190612df5565b610c06565b005b34801561023257600080fd5b5061023b610cf9565b6040516102489190613489565b60405180910390f35b34801561025d57600080fd5b5061027860048036036102739190810190613019565b610cff565b005b34801561028657600080fd5b5061028f610dd7565b60405161029c9190613489565b60405180910390f35b3480156102b157600080fd5b506102cc60048036036102c79190810190612e74565b610ddd565b6040516102d991906132f4565b60405180910390f35b3480156102ee57600080fd5b5061030960048036036103049190810190613019565b610e82565b005b34801561031757600080fd5b50610332600480360361032d9190810190613019565b610f5a565b6040516103489a999897969594939291906134f7565b60405180910390f35b34801561035d57600080fd5b5061037860048036036103739190810190613019565b611183565b6040516103889493929190613377565b60405180910390f35b34801561039d57600080fd5b506103b860048036036103b39190810190612df5565b611303565b005b3480156103c657600080fd5b506103e160048036036103dc9190810190612e74565b6113f7565b6040516103ee9190613407565b60405180910390f35b34801561040357600080fd5b5061041e60048036036104199190810190612e74565b611514565b60405161042b91906135a8565b60405180910390f35b34801561044057600080fd5b506104496115a6565b6040516104569190613489565b60405180910390f35b34801561046b57600080fd5b5061048660048036036104819190810190612df5565b6115ac565b005b34801561049457600080fd5b506104af60048036036104aa9190810190613019565b6116a0565b005b3480156104bd57600080fd5b506104d860048036036104d39190810190613019565b611778565b005b3480156104e657600080fd5b5061050160048036036104fc9190810190613019565b611859565b005b34801561050f57600080fd5b50610518611931565b6040516105259190613489565b60405180910390f35b34801561053a57600080fd5b5061055560048036036105509190810190612e74565b611937565b60405161056291906133ec565b60405180910390f35b34801561057757600080fd5b50610592600480360361058d9190810190613019565b611964565b6040516105a29493929190613377565b60405180910390f35b3480156105b757600080fd5b506105d260048036036105cd9190810190612f6e565b611ae4565b005b3480156105e057600080fd5b506105e9611e15565b6040516105f69190613489565b60405180910390f35b34801561060b57600080fd5b5061062660048036036106219190810190613019565b611e1b565b6040516106339190613407565b60405180910390f35b34801561064857600080fd5b50610663600480360361065e9190810190613019565b61212d565b6040516106739493929190613377565b60405180910390f35b34801561068857600080fd5b506106a3600480360361069e9190810190612e9d565b6122ad565b005b3480156106b157600080fd5b506106cc60048036036106c79190810190612dcc565b612509565b6040516106d991906133ca565b60405180910390f35b60606005805480602002602001604051908101604052809291908181526020016000905b8282101561098957838290600052602060002090600a0201610140604051908101604052908160008201548152602001600182018054600181600116156101000203166002900480601f0160208091040260200160405190810160405280929190818152602001828054600181600116156101000203166002900480156107ce5780601f106107a3576101008083540402835291602001916107ce565b820191906000526020600020905b8154815290600101906020018083116107b157829003601f168201915b5050505050815260200160028201548152602001600382018054600181600116156101000203166002900480601f01602080910402602001604051908101604052809291908181526020018280546001816001161561010002031660029004801561087a5780601f1061084f5761010080835404028352916020019161087a565b820191906000526020600020905b81548152906001019060200180831161085d57829003601f168201915b50505050508152602001600482018054600181600116156101000203166002900480601f01602080910402602001604051908101604052809291908181526020018280546001816001161561010002031660029004801561091c5780601f106108f15761010080835404028352916020019161091c565b820191906000526020600020905b8154815290600101906020018083116108ff57829003601f168201915b50505050508152602001600582015481526020016006820154815260200160078201548152602001600882015481526020016009820160009054906101000a900460ff16600581111561096b57fe5b600581111561097657fe5b8152505081526020019060010190610706565b50505050905090565b600b600081548092919060010191905055506080604051908101604052808473ffffffffffffffffffffffffffffffffffffffff168152602001600b5481526020018381526020018281525060026000600b54815260200190815260200160002060008201518160000160006101000a81548173ffffffffffffffffffffffffffffffffffffffff021916908373ffffffffffffffffffffffffffffffffffffffff160217905550602082015181600101556040820151816002019080519060200190610a60929190612bc3565b506060820151816003019080519060200190610a7d929190612bc3565b50905050505050565b60026020528060005260406000206000915090508060000160009054906101000a900473ffffffffffffffffffffffffffffffffffffffff1690806001015490806002018054600181600116156101000203166002900480601f016020809104026020016040519081016040528092919081815260200182805460018160011615610100020316600290048015610b5e5780601f10610b3357610100808354040283529160200191610b5e565b820191906000526020600020905b815481529060010190602001808311610b4157829003601f168201915b505050505090806003018054600181600116156101000203166002900480601f016020809104026020016040519081016040528092919081815260200182805460018160011615610100020316600290048015610bfc5780601f10610bd157610100808354040283529160200191610bfc565b820191906000526020600020905b815481529060010190602001808311610bdf57829003601f168201915b5050505050905084565b6009600081548092919060010191905055506080604051908101604052808473ffffffffffffffffffffffffffffffffffffffff168152602001600954815260200183815260200182815250600080600954815260200190815260200160002060008201518160000160006101000a81548173ffffffffffffffffffffffffffffffffffffffff021916908373ffffffffffffffffffffffffffffffffffffffff160217905550602082015181600101556040820151816002019080519060200190610cd3929190612bc3565b506060820151816003019080519060200190610cf0929190612bc3565b50905050505050565b600b5481565b600081118015610d1157506008548111155b1515610d1c57600080fd5b6000610d27336128b1565b9050600081111515610d3857600080fd5b60036005811115610d4557fe5b6007600084815260200190815260200160002060090160009054906101000a900460ff166005811115610d7457fe5b141515610d8057600080fd5b80600760008481526020019081526020016000206008018190555060046007600084815260200190815260200160002060090160006101000a81548160ff02191690836005811115610dce57fe5b02179055505050565b600a5481565b60006004600083815260200190815260200160002060040160019054906101000a900460ff161515610e44576040517f08c379a0000000000000000000000000000000000000000000000000000000008152600401610e3b90613449565b60405180910390fd5b6004600083815260200190815260200160002060000160009054906101000a900473ffffffffffffffffffffffffffffffffffffffff169050919050565b600081118015610e9457506008548111155b1515610e9f57600080fd5b6000610eaa33612976565b9050600081111515610ebb57600080fd5b60026005811115610ec857fe5b6007600084815260200190815260200160002060090160009054906101000a900460ff166005811115610ef757fe5b141515610f0357600080fd5b80600760008481526020019081526020016000206007018190555060036007600084815260200190815260200160002060090160006101000a81548160ff02191690836005811115610f5157fe5b02179055505050565b6007602052806000526040600020600091509050806000015490806001018054600181600116156101000203166002900480601f01602080910402602001604051908101604052809291908181526020018280546001816001161561010002031660029004801561100c5780601f10610fe15761010080835404028352916020019161100c565b820191906000526020600020905b815481529060010190602001808311610fef57829003601f168201915b505050505090806002015490806003018054600181600116156101000203166002900480601f0160208091040260200160405190810160405280929190818152602001828054600181600116156101000203166002900480156110b05780601f10611085576101008083540402835291602001916110b0565b820191906000526020600020905b81548152906001019060200180831161109357829003601f168201915b505050505090806004018054600181600116156101000203166002900480601f01602080910402602001604051908101604052809291908181526020018280546001816001161561010002031660029004801561114e5780601f106111235761010080835404028352916020019161114e565b820191906000526020600020905b81548152906001019060200180831161113157829003601f168201915b5050505050908060050154908060060154908060070154908060080154908060090160009054906101000a900460ff1690508a565b60036020528060005260406000206000915090508060000160009054906101000a900473ffffffffffffffffffffffffffffffffffffffff1690806001015490806002018054600181600116156101000203166002900480601f01602080910402602001604051908101604052809291908181526020018280546001816001161561010002031660029004801561125b5780601f106112305761010080835404028352916020019161125b565b820191906000526020600020905b81548152906001019060200180831161123e57829003601f168201915b505050505090806003018054600181600116156101000203166002900480601f0160208091040260200160405190810160405280929190818152602001828054600181600116156101000203166002900480156112f95780601f106112ce576101008083540402835291602001916112f9565b820191906000526020600020905b8154815290600101906020018083116112dc57829003601f168201915b5050505050905084565b600a600081548092919060010191905055506080604051908101604052808473ffffffffffffffffffffffffffffffffffffffff168152602001600a5481526020018381526020018281525060016000600a54815260200190815260200160002060008201518160000160006101000a81548173ffffffffffffffffffffffffffffffffffffffff021916908373ffffffffffffffffffffffffffffffffffffffff1602179055506020820151816001015560408201518160020190805190602001906113d1929190612bc3565b5060608201518160030190805190602001906113ee929190612bc3565b50905050505050565b60606004600083815260200190815260200160002060040160019054906101000a900460ff16151561145e576040517f08c379a000000000000000000000000000000000000000000000000000000000815260040161145590613449565b60405180910390fd5b600460008381526020019081526020016000206002018054600181600116156101000203166002900480601f0160208091040260200160405190810160405280929190818152602001828054600181600116156101000203166002900480156115085780601f106114dd57610100808354040283529160200191611508565b820191906000526020600020905b8154815290600101906020018083116114eb57829003601f168201915b50505050509050919050565b60006004600083815260200190815260200160002060040160019054906101000a900460ff16151561157b576040517f08c379a000000000000000000000000000000000000000000000000000000000815260040161157290613449565b60405180910390fd5b6004600083815260200190815260200160002060040160009054906101000a900460ff169050919050565b600c5481565b600c600081548092919060010191905055506080604051908101604052808473ffffffffffffffffffffffffffffffffffffffff168152602001600c5481526020018381526020018281525060036000600c54815260200190815260200160002060008201518160000160006101000a81548173ffffffffffffffffffffffffffffffffffffffff021916908373ffffffffffffffffffffffffffffffffffffffff16021790555060208201518160010155604082015181600201908051906020019061167a929190612bc3565b506060820151816003019080519060200190611697929190612bc3565b50905050505050565b6000811180156116b257506008548111155b15156116bd57600080fd5b60006116c833612a3b565b90506000811115156116d957600080fd5b600060058111156116e657fe5b6007600084815260200190815260200160002060090160009054906101000a900460ff16600581111561171557fe5b14151561172157600080fd5b80600760008481526020019081526020016000206005018190555060016007600084815260200190815260200160002060090160006101000a81548160ff0219169083600581111561176f57fe5b02179055505050565b60008111801561178a57506008548111155b151561179557600080fd5b60006117a0336128b1565b90506000811115156117b157600080fd5b6007600083815260200190815260200160002060080154811415156117d557600080fd5b600460058111156117e257fe5b6007600084815260200190815260200160002060090160009054906101000a900460ff16600581111561181157fe5b14151561181d57600080fd5b60056007600084815260200190815260200160002060090160006101000a81548160ff0219169083600581111561185057fe5b02179055505050565b60008111801561186b57506008548111155b151561187657600080fd5b600061188133612afe565b905060008111151561189257600080fd5b6001600581111561189f57fe5b6007600084815260200190815260200160002060090160009054906101000a900460ff1660058111156118ce57fe5b1415156118da57600080fd5b80600760008481526020019081526020016000206006018190555060026007600084815260200190815260200160002060090160006101000a81548160ff0219169083600581111561192857fe5b02179055505050565b60085481565b60006004600083815260200190815260200160002060040160019054906101000a900460ff169050919050565b60016020528060005260406000206000915090508060000160009054906101000a900473ffffffffffffffffffffffffffffffffffffffff1690806001015490806002018054600181600116156101000203166002900480601f016020809104026020016040519081016040528092919081815260200182805460018160011615610100020316600290048015611a3c5780601f10611a1157610100808354040283529160200191611a3c565b820191906000526020600020905b815481529060010190602001808311611a1f57829003601f168201915b505050505090806003018054600181600116156101000203166002900480601f016020809104026020016040519081016040528092919081815260200182805460018160011615610100020316600290048015611ada5780601f10611aaf57610100808354040283529160200191611ada565b820191906000526020600020905b815481529060010190602001808311611abd57829003601f168201915b5050505050905084565b600083111515611b29576040517f08c379a0000000000000000000000000000000000000000000000000000000008152600401611b2090613429565b60405180910390fd5b600860008154809291906001019190505550611b43612c43565b6101406040519081016040528060085481526020018681526020018581526020018481526020018381526020016000815260200160008152602001600081526020016000815260200160006005811115611b9957fe5b815250905080600760006008548152602001908152602001600020600082015181600001556020820151816001019080519060200190611bda929190612bc3565b50604082015181600201556060820151816003019080519060200190611c01929190612bc3565b506080820151816004019080519060200190611c1e929190612bc3565b5060a0820151816005015560c0820151816006015560e0820151816007015561010082015181600801556101208201518160090160006101000a81548160ff02191690836005811115611c6d57fe5b02179055509050506005819080600181540180825580915050906001820390600052602060002090600a020160009091929091909150600082015181600001556020820151816001019080519060200190611cc9929190612bc3565b50604082015181600201556060820151816003019080519060200190611cf0929190612bc3565b506080820151816004019080519060200190611d0d929190612bc3565b5060a0820151816005015560c0820151816006015560e0820151816007015561010082015181600801556101208201518160090160006101000a81548160ff02191690836005811115611d5c57fe5b0217905550505050600660003373ffffffffffffffffffffffffffffffffffffffff1673ffffffffffffffffffffffffffffffffffffffff16815260200190815260200160002060085490806001815401808255809150509060018203906000526020600020016000909192909190915055507fe13ce9ce79cb9913a9ad37170496776d2999a1ea99f6d07feeb75b82a56562c8600854868686604051611e0694939291906134a4565b60405180910390a15050505050565b60095481565b60606000600854111515611e2e57600080fd5b60006005811115611e3b57fe5b6007600084815260200190815260200160002060090160009054906101000a900460ff166005811115611e6a57fe5b1415611ead576040805190810160405280600f81526020017f50726f64756374204f72646572656400000000000000000000000000000000008152509050612128565b60016005811115611eba57fe5b6007600084815260200190815260200160002060090160009054906101000a900460ff166005811115611ee957fe5b1415611f2c576040805190810160405280601981526020017f526177204d6174657269616c20537570706c79205374616765000000000000008152509050612128565b60026005811115611f3957fe5b6007600084815260200190815260200160002060090160009054906101000a900460ff166005811115611f6857fe5b1415611fab576040805190810160405280601381526020017f4d616e75666163747572696e67205374616765000000000000000000000000008152509050612128565b60036005811115611fb857fe5b6007600084815260200190815260200160002060090160009054906101000a900460ff166005811115611fe757fe5b141561202a576040805190810160405280601281526020017f446973747269627574696f6e20537461676500000000000000000000000000008152509050612128565b6004600581111561203757fe5b6007600084815260200190815260200160002060090160009054906101000a900460ff16600581111561206657fe5b14156120a9576040805190810160405280600c81526020017f52657461696c20537461676500000000000000000000000000000000000000008152509050612128565b6005808111156120b557fe5b6007600084815260200190815260200160002060090160009054906101000a900460ff1660058111156120e457fe5b1415612127576040805190810160405280600c81526020017f50726f6475637420536f6c6400000000000000000000000000000000000000008152509050612128565b5b919050565b60006020528060005260406000206000915090508060000160009054906101000a900473ffffffffffffffffffffffffffffffffffffffff1690806001015490806002018054600181600116156101000203166002900480601f0160208091040260200160405190810160405280929190818152602001828054600181600116156101000203166002900480156122055780601f106121da57610100808354040283529160200191612205565b820191906000526020600020905b8154815290600101906020018083116121e857829003601f168201915b505050505090806003018054600181600116156101000203166002900480601f0160208091040260200160405190810160405280929190818152602001828054600181600116156101000203166002900480156122a35780601f10612278576101008083540402835291602001916122a3565b820191906000526020600020905b81548152906001019060200180831161228657829003601f168201915b5050505050905084565b6004600087815260200190815260200160002060040160019054906101000a900460ff16151515612313576040517f08c379a000000000000000000000000000000000000000000000000000000000815260040161230a90613469565b60405180910390fd5b60c0604051908101604052808573ffffffffffffffffffffffffffffffffffffffff1681526020018681526020018481526020018381526020018260ff168152602001600115158152506004600088815260200190815260200160002060008201518160000160006101000a81548173ffffffffffffffffffffffffffffffffffffffff021916908373ffffffffffffffffffffffffffffffffffffffff16021790555060208201518160010190805190602001906123d3929190612bc3565b5060408201518160020190805190602001906123f0929190612bc3565b50606082015181600301908051906020019061240d929190612bc3565b5060808201518160040160006101000a81548160ff021916908360ff16021790555060a08201518160040160016101000a81548160ff02191690831515021790555090505060008160ff16141561246e57612469848484610c06565b6124c1565b60018160ff16141561248a57612485848484611303565b6124c0565b60028160ff1614156124a6576124a1848484610992565b6124bf565b60038160ff1614156124be576124bd8484846115ac565b5b5b5b5b857f9b8104c9d3a589f54191d7c8ef600d2fd0856e9b7f08014394fc6f12afc5514685878686866040516124f995949392919061330f565b60405180910390a2505050505050565b606080600660008473ffffffffffffffffffffffffffffffffffffffff1673ffffffffffffffffffffffffffffffffffffffff16815260200190815260200160002080548060200260200160405190810160405280929190818152602001828054801561259557602002820191906000526020600020905b815481526020019060010190808311612581575b50505050509050606081516040519080825280602002602001820160405280156125d957816020015b6125c6612ca2565b8152602001906001900390816125be5790505b50905060008090505b82518110156128a6576005600184838151811015156125fd57fe5b906020019060200201510381548110151561261457fe5b90600052602060002090600a0201610140604051908101604052908160008201548152602001600182018054600181600116156101000203166002900480601f0160208091040260200160405190810160405280929190818152602001828054600181600116156101000203166002900480156126d25780601f106126a7576101008083540402835291602001916126d2565b820191906000526020600020905b8154815290600101906020018083116126b557829003601f168201915b5050505050815260200160028201548152602001600382018054600181600116156101000203166002900480601f01602080910402602001604051908101604052809291908181526020018280546001816001161561010002031660029004801561277e5780601f106127535761010080835404028352916020019161277e565b820191906000526020600020905b81548152906001019060200180831161276157829003601f168201915b50505050508152602001600482018054600181600116156101000203166002900480601f0160208091040260200160405190810160405280929190818152602001828054600181600116156101000203166002900480156128205780601f106127f557610100808354040283529160200191612820565b820191906000526020600020905b81548152906001019060200180831161280357829003601f168201915b50505050508152602001600582015481526020016006820154815260200160078201548152602001600882015481526020016009820160009054906101000a900460ff16600581111561286f57fe5b600581111561287a57fe5b81525050828281518110151561288c57fe5b9060200190602002018190525080806001019150506125e2565b508092505050919050565b600080600c541115156128c357600080fd5b6000600190505b600c548111151561296b578273ffffffffffffffffffffffffffffffffffffffff166003600083815260200190815260200160002060000160009054906101000a900473ffffffffffffffffffffffffffffffffffffffff1673ffffffffffffffffffffffffffffffffffffffff16141561295e576003600082815260200190815260200160002060010154915050612971565b80806001019150506128ca565b50600090505b919050565b600080600b5411151561298857600080fd5b6000600190505b600b5481111515612a30578273ffffffffffffffffffffffffffffffffffffffff166002600083815260200190815260200160002060000160009054906101000a900473ffffffffffffffffffffffffffffffffffffffff1673ffffffffffffffffffffffffffffffffffffffff161415612a23576002600082815260200190815260200160002060010154915050612a36565b808060010191505061298f565b50600090505b919050565b600080600954111515612a4d57600080fd5b6000600190505b60095481111515612af3578273ffffffffffffffffffffffffffffffffffffffff1660008083815260200190815260200160002060000160009054906101000a900473ffffffffffffffffffffffffffffffffffffffff1673ffffffffffffffffffffffffffffffffffffffff161415612ae65760008082815260200190815260200160002060010154915050612af9565b8080600101915050612a54565b50600090505b919050565b600080600a54111515612b1057600080fd5b6000600190505b600a5481111515612bb8578273ffffffffffffffffffffffffffffffffffffffff166001600083815260200190815260200160002060000160009054906101000a900473ffffffffffffffffffffffffffffffffffffffff1673ffffffffffffffffffffffffffffffffffffffff161415612bab576001600082815260200190815260200160002060010154915050612bbe565b8080600101915050612b17565b50600090505b919050565b828054600181600116156101000203166002900490600052602060002090601f016020900481019282601f10612c0457805160ff1916838001178555612c32565b82800160010185558215612c32579182015b82811115612c31578251825591602001919060010190612c16565b5b509050612c3f9190612d01565b5090565b6101406040519081016040528060008152602001606081526020016000815260200160608152602001606081526020016000815260200160008152602001600081526020016000815260200160006005811115612c9c57fe5b81525090565b6101406040519081016040528060008152602001606081526020016000815260200160608152602001606081526020016000815260200160008152602001600081526020016000815260200160006005811115612cfb57fe5b81525090565b612d2391905b80821115612d1f576000816000905550600101612d07565b5090565b90565b6000612d3282356136c2565b905092915050565b6000612d4682356136d4565b905092915050565b600082601f8301121515612d6157600080fd5b8135612d74612d6f826135f0565b6135c3565b91508082526020830160208301858383011115612d9057600080fd5b612d9b838284613707565b50505092915050565b6000612db082356136de565b905092915050565b6000612dc482356136e8565b905092915050565b600060208284031215612dde57600080fd5b6000612dec84828501612d26565b91505092915050565b600080600060608486031215612e0a57600080fd5b6000612e1886828701612d26565b935050602084013567ffffffffffffffff811115612e3557600080fd5b612e4186828701612d4e565b925050604084013567ffffffffffffffff811115612e5e57600080fd5b612e6a86828701612d4e565b9150509250925092565b600060208284031215612e8657600080fd5b6000612e9484828501612d3a565b91505092915050565b60008060008060008060c08789031215612eb657600080fd5b6000612ec489828a01612d3a565b965050602087013567ffffffffffffffff811115612ee157600080fd5b612eed89828a01612d4e565b9550506040612efe89828a01612d26565b945050606087013567ffffffffffffffff811115612f1b57600080fd5b612f2789828a01612d4e565b935050608087013567ffffffffffffffff811115612f4457600080fd5b612f5089828a01612d4e565b92505060a0612f6189828a01612db8565b9150509295509295509295565b60008060008060808587031215612f8457600080fd5b600085013567ffffffffffffffff811115612f9e57600080fd5b612faa87828801612d4e565b9450506020612fbb87828801612da4565b935050604085013567ffffffffffffffff811115612fd857600080fd5b612fe487828801612d4e565b925050606085013567ffffffffffffffff81111561300157600080fd5b61300d87828801612d4e565b91505092959194509250565b60006020828403121561302b57600080fd5b600061303984828501612da4565b91505092915050565b61304b81613657565b82525050565b600061305c82613629565b808452602084019350836020820285016130758561361c565b60005b848110156130ae5783830388526130908383516131ee565b925061309b8261364a565b9150602088019750600181019050613078565b508196508694505050505092915050565b6130c881613669565b82525050565b6130d7816136f5565b82525050565b60006130e88261363f565b8084526130fc816020860160208601613716565b61310581613749565b602085010191505092915050565b600061311e82613634565b808452613132816020860160208601613716565b61313b81613749565b602085010191505092915050565b6000601f82527f5175616e74697479206d7573742062652067726561746572207468616e2030006020830152604082019050919050565b6000601382527f55736572206e6f742072656769737465726564000000000000000000000000006020830152604082019050919050565b6000601782527f5573657220616c726561647920726567697374657265640000000000000000006020830152604082019050919050565b60006101408301600083015161320760008601826132d6565b506020830151848203602086015261321f8282613113565b915050604083015161323460408601826132d6565b506060830151848203606086015261324c8282613113565b915050608083015184820360808601526132668282613113565b91505060a083015161327b60a08601826132d6565b5060c083015161328e60c08601826132d6565b5060e08301516132a160e08601826132d6565b506101008301516132b66101008601826132d6565b506101208301516132cb6101208601826130ce565b508091505092915050565b6132df816136ab565b82525050565b6132ee816136b5565b82525050565b60006020820190506133096000830184613042565b92915050565b600060a0820190506133246000830188613042565b818103602083015261333681876130dd565b9050818103604083015261334a81866130dd565b9050818103606083015261335e81856130dd565b905061336d60808301846132e5565b9695505050505050565b600060808201905061338c6000830187613042565b61339960208301866132d6565b81810360408301526133ab8185613113565b905081810360608301526133bf8184613113565b905095945050505050565b600060208201905081810360008301526133e48184613051565b905092915050565b600060208201905061340160008301846130bf565b92915050565b6000602082019050818103600083015261342181846130dd565b905092915050565b6000602082019050818103600083015261344281613149565b9050919050565b6000602082019050818103600083015261346281613180565b9050919050565b60006020820190508181036000830152613482816131b7565b9050919050565b600060208201905061349e60008301846132d6565b92915050565b60006080820190506134b960008301876132d6565b81810360208301526134cb81866130dd565b90506134da60408301856132d6565b81810360608301526134ec81846130dd565b905095945050505050565b60006101408201905061350d600083018d6132d6565b818103602083015261351f818c613113565b905061352e604083018b6132d6565b8181036060830152613540818a613113565b905081810360808301526135548189613113565b905061356360a08301886132d6565b61357060c08301876132d6565b61357d60e08301866132d6565b61358b6101008301856132d6565b6135996101208301846130ce565b9b9a5050505050505050505050565b60006020820190506135bd60008301846132e5565b92915050565b6000604051905081810181811067ffffffffffffffff821117156135e657600080fd5b8060405250919050565b600067ffffffffffffffff82111561360757600080fd5b601f19601f8301169050602081019050919050565b6000602082019050919050565b600081519050919050565b600081519050919050565b600081519050919050565b6000602082019050919050565b60006136628261368b565b9050919050565b60008115159050919050565b600060068210151561368357fe5b819050919050565b600073ffffffffffffffffffffffffffffffffffffffff82169050919050565b6000819050919050565b600060ff82169050919050565b60006136cd8261368b565b9050919050565b6000819050919050565b6000819050919050565b600060ff82169050919050565b600061370082613675565b9050919050565b82818337600083830152505050565b60005b83811015613734578082015181840152602081019050613719565b83811115613743576000848401525b50505050565b6000601f19601f830116905091905056fea265627a7a7230582095544a3031b2102830b2eac6bc53eb4edd32188f22d19b6336a7b4b7737675fd6c6578706572696d656e74616cf50037",
  "source": "// SPDX-License-Identifier: MIT\npragma solidity >=0.4.22 <0.9.0;\npragma experimental ABIEncoderV2;\n\ncontract GoogleAuthMapping {\n    struct User {\n        address ethAddress;\n\t\tstring email;\n        string username;\n        string location;\n        uint8 role; // 0: Raw Material Supplier, 1: Manufacturer, 2: Distributor, 3: Retailer\n        bool registered;\n    }\n\n    struct Product {\n        uint256 id;\n        string name;\n        uint256 quantity;\n        string registeredByEmail;\n\t\tstring description; //about product\n        uint256 RMSid; //id of the Raw Material supplier for this particular product\n        uint256 MANid; //id of the Manufacturer for this particular product\n        uint256 DISid; //id of the distributor for this particular product\n        uint256 RETid; //id of the retailer for this particular product\n        STAGE stage; //current product stage\n    }\n\n\t//To store information about raw material supplier\n    struct rawMaterialSupplier {\n        address addr;\n        uint256 id; //supplier id\n        string name; //Name of the raw material supplier\n        string place; //Place the raw material supplier is based in\n    }\n\n    //To store all the raw material suppliers on the blockchain\n    mapping(uint256 => rawMaterialSupplier) public RMS;\n\n    //To store information about manufacturer\n    struct manufacturer {\n        address addr;\n        uint256 id; //manufacturer id\n        string name; //Name of the manufacturer\n        string place; //Place the manufacturer is based in\n    }\n\n    //To store all the manufacturers on the blockchain\n    mapping(uint256 => manufacturer) public MAN;\n\n    //To store information about distributor\n    struct distributor {\n        address addr;\n        uint256 id; //distributor id\n        string name; //Name of the distributor\n        string place; //Place the distributor is based in\n    }\n\n    //To store all the distributors on the blockchain\n    mapping(uint256 => distributor) public DIS;\n\n    //To store information about retailer\n    struct retailer {\n        address addr;\n        uint256 id; //retailer id\n        string name; //Name of the retailer\n        string place; //Place the retailer is based in\n    }\n\n    //To store all the retailers on the blockchain\n    mapping(uint256 => retailer) public RET;\n\n\t//stages of supply chain\n    enum STAGE {\n        Init,\n        RawMaterialSupply,\n        Manufacture,\n        Distribution,\n        Retail,\n        sold\n    }\n\n    mapping(bytes32 => User) private googleIdToUser;\n    Product[] private products;\n    mapping(address => uint256[]) private userProductIds;\n\n\t//To store all the products on the blockchain\n\tmapping(uint256 => Product) public ProductStock;\n\n\t//Product count\n    uint256 public productCtr = 0;\n    //Raw material supplier count\n    uint256 public rmsCtr = 0;\n    //Manufacturer count\n    uint256 public manCtr = 0;\n    //distributor count\n    uint256 public disCtr = 0;\n    //retailer count\n    uint256 public retCtr = 0;\n\n    event UserRegistered(bytes32 indexed googleIdHash, address ethAddress, string email, string username, string location, uint8 role);\n    event ProductAdded(uint256 productId, string name, uint256 quantity, string registeredByEmail);\n\n\t //To add raw material suppliers. Only contract owner can add a new raw material supplier\n    function addRMS(\n        address _address,\n        string memory _name,\n        string memory _place\n    ) public {\n        rmsCtr++;\n        RMS[rmsCtr] = rawMaterialSupplier(_address, rmsCtr, _name, _place);\n    }\n\n    //To add manufacturer. Only contract owner can add a new manufacturer\n    function addManufacturer(\n        address _address,\n        string memory _name,\n        string memory _place\n    ) public {\n        manCtr++;\n        MAN[manCtr] = manufacturer(_address, manCtr, _name, _place);\n    }\n\n    //To add distributor. Only contract owner can add a new distributor\n    function addDistributor(\n        address _address,\n        string memory _name,\n        string memory _place\n    ) public {\n        disCtr++;\n        DIS[disCtr] = distributor(_address, disCtr, _name, _place);\n    }\n\n    //To add retailer. Only contract owner can add a new retailer\n    function addRetailer(\n        address _address,\n        string memory _name,\n        string memory _place\n    ) public {\n        retCtr++;\n        RET[retCtr] = retailer(_address, retCtr, _name, _place);\n    }\n\n    function registerUser(\n        bytes32 googleIdHash,\n\t\tstring memory email,\n        address ethAddress,\n        string memory username,\n        string memory location,\n        uint8 role\n    ) public {\n        require(!googleIdToUser[googleIdHash].registered, \"User already registered\");\n        googleIdToUser[googleIdHash] = User(ethAddress, email, username, location, role, true);\n\t\tif(role == 0){\n\t\t\taddRMS(ethAddress, username, location);\n\t\t}\n\t\telse if(role == 1){\n\t\t\taddManufacturer(ethAddress, username, location);\n\t\t}\n\t\telse if(role == 2){\n\t\t\taddDistributor(ethAddress, username, location);\n\t\t}\n\t\telse if(role == 3){\n\t\t\taddRetailer(ethAddress, username, location);\n\t\t}\n        emit UserRegistered(googleIdHash, ethAddress, email, username, location, role);\n    }\n\n    function validateUser(bytes32 googleIdHash) public view returns (bool) {\n        return googleIdToUser[googleIdHash].registered;\n    }\n\n    function getUserAddress(bytes32 googleIdHash) public view returns (address) {\n        require(googleIdToUser[googleIdHash].registered, \"User not registered\");\n        return googleIdToUser[googleIdHash].ethAddress;\n    }\n\n    function getUsername(bytes32 googleIdHash) public view returns (string memory) {\n        require(googleIdToUser[googleIdHash].registered, \"User not registered\");\n        return googleIdToUser[googleIdHash].username;\n    }\n\n\tfunction getRole(bytes32 googleIdHash) public view returns (uint8) {\n    require(googleIdToUser[googleIdHash].registered, \"User not registered\");\n    return googleIdToUser[googleIdHash].role;\n\t}\n\n    function addProduct(string memory name, uint256 quantity, string memory registeredByEmail, string memory description) public {\n        require(quantity > 0, \"Quantity must be greater than 0\");\n        productCtr++;\n\t\tProduct memory p = Product(productCtr, name, quantity, registeredByEmail, description, 0,\n            0,\n            0,\n            0,\n            STAGE.Init);\n\t\tProductStock[productCtr] = p;\n        products.push(p);\n        userProductIds[msg.sender].push(productCtr);\n        emit ProductAdded(productCtr, name, quantity, registeredByEmail);\n    }\n\n    function getAllProducts() public view returns (Product[] memory) {\n        return products;\n    }\n\n    function getUserProducts(address user) public view returns (Product[] memory) {\n        uint256[] memory productIds = userProductIds[user];\n        Product[] memory userProducts = new Product[](productIds.length);\n\n        for (uint256 i = 0; i < productIds.length; i++) {\n            userProducts[i] = products[productIds[i] - 1];\n        }\n        return userProducts;\n    }\n\n\t//To supply raw materials from RMS supplier to the manufacturer\n    function RMSsupply(uint256 _productID) public {\n        require(_productID > 0 && _productID <= productCtr);\n        uint256 _id = findRMS(msg.sender);\n        require(_id > 0);\n        require(ProductStock[_productID].stage == STAGE.Init);\n        ProductStock[_productID].RMSid = _id;\n        ProductStock[_productID].stage = STAGE.RawMaterialSupply;\n    }\n\n    //To check if RMS is available in the blockchain\n    function findRMS(address _address) private view returns (uint256) {\n        require(rmsCtr > 0);\n        for (uint256 i = 1; i <= rmsCtr; i++) {\n            if (RMS[i].addr == _address) return RMS[i].id;\n        }\n        return 0;\n    }\n\n    //To manufacture product\n    function Manufacturing(uint256 _productID) public {\n        require(_productID > 0 && _productID <= productCtr);\n        uint256 _id = findMAN(msg.sender);\n        require(_id > 0);\n        require(ProductStock[_productID].stage == STAGE.RawMaterialSupply);\n        ProductStock[_productID].MANid = _id;\n        ProductStock[_productID].stage = STAGE.Manufacture;\n    }\n\n    //To check if Manufacturer is available in the blockchain\n    function findMAN(address _address) private view returns (uint256) {\n        require(manCtr > 0);\n        for (uint256 i = 1; i <= manCtr; i++) {\n            if (MAN[i].addr == _address) return MAN[i].id;\n        }\n        return 0;\n    }\n\n    //To supply products from Manufacturer to distributor\n    function Distribute(uint256 _productID) public {\n        require(_productID > 0 && _productID <= productCtr);\n        uint256 _id = findDIS(msg.sender);\n        require(_id > 0);\n        require(ProductStock[_productID].stage == STAGE.Manufacture);\n        ProductStock[_productID].DISid = _id;\n        ProductStock[_productID].stage = STAGE.Distribution;\n    }\n\n    //To check if distributor is available in the blockchain\n    function findDIS(address _address) private view returns (uint256) {\n        require(disCtr > 0);\n        for (uint256 i = 1; i <= disCtr; i++) {\n            if (DIS[i].addr == _address) return DIS[i].id;\n        }\n        return 0;\n    }\n\n    //To supply products from distributor to retailer\n    function Retail(uint256 _productID) public {\n        require(_productID > 0 && _productID <= productCtr);\n        uint256 _id = findRET(msg.sender);\n        require(_id > 0);\n        require(ProductStock[_productID].stage == STAGE.Distribution);\n        ProductStock[_productID].RETid = _id;\n        ProductStock[_productID].stage = STAGE.Retail;\n    }\n\n    //To check if retailer is available in the blockchain\n    function findRET(address _address) private view returns (uint256) {\n        require(retCtr > 0);\n        for (uint256 i = 1; i <= retCtr; i++) {\n            if (RET[i].addr == _address) return RET[i].id;\n        }\n        return 0;\n    }\n\n    //To sell products from retailer to consumer\n    function sold(uint256 _productID) public {\n        require(_productID > 0 && _productID <= productCtr);\n        uint256 _id = findRET(msg.sender);\n        require(_id > 0);\n        require(_id == ProductStock[_productID].RETid); //Only correct retailer can mark product as sold\n        require(ProductStock[_productID].stage == STAGE.Retail);\n        ProductStock[_productID].stage = STAGE.sold;\n    }\n\n    //To show status to client applications\n    function showStage(uint256 _productID)\n        public\n        view\n        returns (string memory)\n    {\n        require(productCtr > 0);\n        if (ProductStock[_productID].stage == STAGE.Init)\n            return \"Product Ordered\";\n        else if (ProductStock[_productID].stage == STAGE.RawMaterialSupply)\n            return \"Raw Material Supply Stage\";\n        else if (ProductStock[_productID].stage == STAGE.Manufacture)\n            return \"Manufacturing Stage\";\n        else if (ProductStock[_productID].stage == STAGE.Distribution)\n            return \"Distribution Stage\";\n        else if (ProductStock[_productID].stage == STAGE.Retail)\n            return \"Retail Stage\";\n        else if (ProductStock[_productID].stage == STAGE.sold)\n            return \"Product Sold\";\n    }\n\n}",
  "sourcePath": "C:\\Users\\SIDDHARTH\\Downloads\\BTP\\BTP\\contracts\\GoogleAuthMapping.sol",
  "compiler": {
    "name": "solc",
    "version": "0.5.1+commit.c8a2cb62.Emscripten.clang"
  },
  "schemaVersion": "3.4.16",
  "updatedAt": "2024-12-03T17:02:07.655Z",
  "devdoc": {
    "methods": {}
  },
  "userdoc": {
    "methods": {}
  }
}